{
  "contractName": "OwnerFactory",
  "abi": [
    {
      "inputs": [],
      "payable": false,
      "stateMutability": "nonpayable",
      "type": "constructor"
    },
    {
      "anonymous": false,
      "inputs": [],
      "name": "NewOwner",
      "type": "event"
    },
    {
      "anonymous": false,
      "inputs": [],
      "name": "NewPoint",
      "type": "event"
    },
    {
      "anonymous": false,
      "inputs": [
        {
          "indexed": true,
          "internalType": "address",
          "name": "previousOwner",
          "type": "address"
        },
        {
          "indexed": true,
          "internalType": "address",
          "name": "newOwner",
          "type": "address"
        }
      ],
      "name": "OwnershipTransferred",
      "type": "event"
    },
    {
      "constant": true,
      "inputs": [
        {
          "internalType": "address",
          "name": "",
          "type": "address"
        }
      ],
      "name": "addresstoowner",
      "outputs": [
        {
          "internalType": "address",
          "name": "oaddress",
          "type": "address"
        },
        {
          "internalType": "string",
          "name": "name",
          "type": "string"
        },
        {
          "internalType": "uint256",
          "name": "freepointscount",
          "type": "uint256"
        }
      ],
      "payable": false,
      "stateMutability": "view",
      "type": "function"
    },
    {
      "constant": false,
      "inputs": [
        {
          "components": [
            {
              "internalType": "uint256",
              "name": "id",
              "type": "uint256"
            },
            {
              "internalType": "enum PointsFactory.types",
              "name": "Mytype",
              "type": "uint8"
            },
            {
              "internalType": "bool",
              "name": "tradable",
              "type": "bool"
            }
          ],
          "internalType": "struct PointsFactory.Point",
          "name": "p",
          "type": "tuple"
        }
      ],
      "name": "getmytype",
      "outputs": [
        {
          "internalType": "enum PointsFactory.types",
          "name": "",
          "type": "uint8"
        }
      ],
      "payable": false,
      "stateMutability": "nonpayable",
      "type": "function"
    },
    {
      "constant": true,
      "inputs": [],
      "name": "isOwner",
      "outputs": [
        {
          "internalType": "bool",
          "name": "",
          "type": "bool"
        }
      ],
      "payable": false,
      "stateMutability": "view",
      "type": "function"
    },
    {
      "constant": true,
      "inputs": [],
      "name": "owner",
      "outputs": [
        {
          "internalType": "address",
          "name": "",
          "type": "address"
        }
      ],
      "payable": false,
      "stateMutability": "view",
      "type": "function"
    },
    {
      "constant": true,
      "inputs": [
        {
          "internalType": "address",
          "name": "",
          "type": "address"
        }
      ],
      "name": "ownerpresent",
      "outputs": [
        {
          "internalType": "bool",
          "name": "",
          "type": "bool"
        }
      ],
      "payable": false,
      "stateMutability": "view",
      "type": "function"
    },
    {
      "constant": true,
      "inputs": [
        {
          "internalType": "uint256",
          "name": "",
          "type": "uint256"
        }
      ],
      "name": "owners",
      "outputs": [
        {
          "internalType": "address",
          "name": "oaddress",
          "type": "address"
        },
        {
          "internalType": "string",
          "name": "name",
          "type": "string"
        },
        {
          "internalType": "uint256",
          "name": "freepointscount",
          "type": "uint256"
        }
      ],
      "payable": false,
      "stateMutability": "view",
      "type": "function"
    },
    {
      "constant": true,
      "inputs": [
        {
          "internalType": "uint256",
          "name": "",
          "type": "uint256"
        }
      ],
      "name": "pointToOwner",
      "outputs": [
        {
          "internalType": "address",
          "name": "",
          "type": "address"
        }
      ],
      "payable": false,
      "stateMutability": "view",
      "type": "function"
    },
    {
      "constant": true,
      "inputs": [
        {
          "internalType": "uint256",
          "name": "",
          "type": "uint256"
        }
      ],
      "name": "points",
      "outputs": [
        {
          "internalType": "uint256",
          "name": "id",
          "type": "uint256"
        },
        {
          "internalType": "enum PointsFactory.types",
          "name": "Mytype",
          "type": "uint8"
        },
        {
          "internalType": "bool",
          "name": "tradable",
          "type": "bool"
        }
      ],
      "payable": false,
      "stateMutability": "view",
      "type": "function"
    },
    {
      "constant": false,
      "inputs": [],
      "name": "renounceOwnership",
      "outputs": [],
      "payable": false,
      "stateMutability": "nonpayable",
      "type": "function"
    },
    {
      "constant": false,
      "inputs": [
        {
          "internalType": "address",
          "name": "newOwner",
          "type": "address"
        }
      ],
      "name": "transferOwnership",
      "outputs": [],
      "payable": false,
      "stateMutability": "nonpayable",
      "type": "function"
    },
    {
      "constant": true,
      "inputs": [
        {
          "internalType": "string",
          "name": "",
          "type": "string"
        }
      ],
      "name": "typetostring",
      "outputs": [
        {
          "internalType": "enum PointsFactory.types",
          "name": "",
          "type": "uint8"
        }
      ],
      "payable": false,
      "stateMutability": "view",
      "type": "function"
    },
    {
      "constant": true,
      "inputs": [],
      "name": "checkowner",
      "outputs": [
        {
          "internalType": "bool",
          "name": "",
          "type": "bool"
        }
      ],
      "payable": false,
      "stateMutability": "view",
      "type": "function"
    },
    {
      "constant": false,
      "inputs": [
        {
          "internalType": "string",
          "name": "_t",
          "type": "string"
        },
        {
          "components": [
            {
              "internalType": "uint256",
              "name": "id",
              "type": "uint256"
            },
            {
              "internalType": "enum PointsFactory.types",
              "name": "Mytype",
              "type": "uint8"
            },
            {
              "internalType": "bool",
              "name": "tradable",
              "type": "bool"
            }
          ],
          "internalType": "struct PointsFactory.Point[]",
          "name": "pointso",
          "type": "tuple[]"
        }
      ],
      "name": "getpointcount",
      "outputs": [
        {
          "internalType": "uint256",
          "name": "",
          "type": "uint256"
        }
      ],
      "payable": false,
      "stateMutability": "nonpayable",
      "type": "function"
    },
    {
      "constant": false,
      "inputs": [],
      "name": "getAdd",
      "outputs": [
        {
          "internalType": "address",
          "name": "",
          "type": "address"
        }
      ],
      "payable": false,
      "stateMutability": "nonpayable",
      "type": "function"
    }
  ],
  "bytecode": "0x608060405260006001556000600a5534801561001a57600080fd5b50336000806101000a81548173ffffffffffffffffffffffffffffffffffffffff021916908373ffffffffffffffffffffffffffffffffffffffff1602179055506000809054906101000a900473ffffffffffffffffffffffffffffffffffffffff1673ffffffffffffffffffffffffffffffffffffffff16600073ffffffffffffffffffffffffffffffffffffffff167f8be0079c531659141344cd1fd0a4f28419497f9722a3daafe3b4186f6b6457e060405160405180910390a3611653806100e66000396000f3fe608060405234801561001057600080fd5b50600436106100ea5760003560e01c80638f32d59b1161008c578063d14d42ba11610066578063d14d42ba14610277578063e0b3652b14610295578063e95dbe61146102c5578063f2fde38b146102f7576100ea565b80638f32d59b146101f75780639799b4e714610215578063c30665ef14610247576100ea565b8063715018a6116100c8578063715018a6146101815780637eb1f8081461018b5780638da5cb5b146101a95780638eb45bb7146101c7576100ea565b8063025e7c27146100ef57806347db4f241461012157806351517a6614610151575b600080fd5b6101096004803603610104919081019061109f565b610313565b60405161011893929190611349565b60405180910390f35b61013b60048036036101369190810190611076565b610402565b60405161014891906113a2565b60405180910390f35b61016b60048036036101669190810190610fc9565b610410565b60405161017891906113a2565b60405180910390f35b610189610446565b005b610193610516565b6040516101a09190611387565b60405180910390f35b6101b161056a565b6040516101be919061132e565b60405180910390f35b6101e160048036036101dc919081019061100a565b610593565b6040516101ee91906113bd565b60405180910390f35b6101ff610a67565b60405161020c9190611387565b60405180910390f35b61022f600480360361022a919081019061109f565b610abe565b60405161023e939291906113d8565b60405180910390f35b610261600480360361025c9190810190610fa0565b610b0f565b60405161026e9190611387565b60405180910390f35b61027f610b2f565b60405161028c919061132e565b60405180910390f35b6102af60048036036102aa919081019061109f565b610b37565b6040516102bc919061132e565b60405180910390f35b6102df60048036036102da9190810190610fa0565b610b6a565b6040516102ee93929190611349565b60405180910390f35b610311600480360361030c9190810190610fa0565b610c4c565b005b6009818154811061032057fe5b90600052602060002090600602016000915090508060000160009054906101000a900473ffffffffffffffffffffffffffffffffffffffff1690806001018054600181600116156101000203166002900480601f0160208091040260200160405190810160405280929190818152602001828054600181600116156101000203166002900480156103f25780601f106103c7576101008083540402835291602001916103f2565b820191906000526020600020905b8154815290600101906020018083116103d557829003601f168201915b5050505050908060050154905083565b600081602001519050919050565b6005818051602081018201805184825260208301602085012081835280955050505050506000915054906101000a900460ff1681565b61044e610a67565b61045757600080fd5b600073ffffffffffffffffffffffffffffffffffffffff166000809054906101000a900473ffffffffffffffffffffffffffffffffffffffff1673ffffffffffffffffffffffffffffffffffffffff167f8be0079c531659141344cd1fd0a4f28419497f9722a3daafe3b4186f6b6457e060405160405180910390a360008060006101000a81548173ffffffffffffffffffffffffffffffffffffffff021916908373ffffffffffffffffffffffffffffffffffffffff160217905550565b6000600860003373ffffffffffffffffffffffffffffffffffffffff1673ffffffffffffffffffffffffffffffffffffffff16815260200190815260200160002060009054906101000a900460ff16905090565b60008060009054906101000a900473ffffffffffffffffffffffffffffffffffffffff16905090565b600080600090506000809050600080905060008090506000809050600080905060008090505b88518110156108765760058a6040516105d291906112ae565b908152602001604051809103902060009054906101000a900460ff1660058111156105f957fe5b6106158a838151811061060857fe5b6020026020010151610402565b600581111561062057fe5b1415610633578180600101925050610869565b60058a60405161064391906112ae565b908152602001604051809103902060009054906101000a900460ff16600581111561066a57fe5b6106868a838151811061067957fe5b6020026020010151610402565b600581111561069157fe5b14156106a4578680600101975050610868565b60058a6040516106b491906112ae565b908152602001604051809103902060009054906101000a900460ff1660058111156106db57fe5b6106f78a83815181106106ea57fe5b6020026020010151610402565b600581111561070257fe5b1415610715578580600101965050610867565b60058a60405161072591906112ae565b908152602001604051809103902060009054906101000a900460ff16600581111561074c57fe5b6107688a838151811061075b57fe5b6020026020010151610402565b600581111561077357fe5b1415610786578480600101955050610866565b60058a60405161079691906112ae565b908152602001604051809103902060009054906101000a900460ff1660058111156107bd57fe5b6107d98a83815181106107cc57fe5b6020026020010151610402565b60058111156107e457fe5b14156107f7578380600101945050610865565b60058a60405161080791906112ae565b908152602001604051809103902060009054906101000a900460ff16600581111561082e57fe5b61084a8a838151811061083d57fe5b6020026020010151610402565b600581111561085557fe5b14156108645782806001019350505b5b5b5b5b5b80806001019150506105b9565b5060405160200161088690611319565b60405160208183030381529060405280519060200120896040516020016108ad91906112ae565b6040516020818303038152906040528051906020012014156108d757859650505050505050610a61565b6040516020016108e6906112c5565b604051602081830303815290604052805190602001208960405160200161090d91906112ae565b60405160208183030381529060405280519060200120141561093757849650505050505050610a61565b604051602001610946906112ef565b604051602081830303815290604052805190602001208960405160200161096d91906112ae565b60405160208183030381529060405280519060200120141561099757839650505050505050610a61565b6040516020016109a690611304565b60405160208183030381529060405280519060200120896040516020016109cd91906112ae565b6040516020818303038152906040528051906020012014156109f757829650505050505050610a61565b604051602001610a06906112da565b6040516020818303038152906040528051906020012089604051602001610a2d91906112ae565b604051602081830303815290604052805190602001201415610a5757819650505050505050610a61565b8096505050505050505b92915050565b60008060009054906101000a900473ffffffffffffffffffffffffffffffffffffffff1673ffffffffffffffffffffffffffffffffffffffff163373ffffffffffffffffffffffffffffffffffffffff1614905090565b60028181548110610acb57fe5b90600052602060002090600202016000915090508060000154908060010160009054906101000a900460ff16908060010160019054906101000a900460ff16905083565b60086020528060005260406000206000915054906101000a900460ff1681565b600033905090565b60036020528060005260406000206000915054906101000a900473ffffffffffffffffffffffffffffffffffffffff1681565b60066020528060005260406000206000915090508060000160009054906101000a900473ffffffffffffffffffffffffffffffffffffffff1690806001018054600181600116156101000203166002900480601f016020809104026020016040519081016040528092919081815260200182805460018160011615610100020316600290048015610c3c5780601f10610c1157610100808354040283529160200191610c3c565b820191906000526020600020905b815481529060010190602001808311610c1f57829003601f168201915b5050505050908060050154905083565b610c54610a67565b610c5d57600080fd5b610c6681610c69565b50565b600073ffffffffffffffffffffffffffffffffffffffff168173ffffffffffffffffffffffffffffffffffffffff161415610ca357600080fd5b8073ffffffffffffffffffffffffffffffffffffffff166000809054906101000a900473ffffffffffffffffffffffffffffffffffffffff1673ffffffffffffffffffffffffffffffffffffffff167f8be0079c531659141344cd1fd0a4f28419497f9722a3daafe3b4186f6b6457e060405160405180910390a3806000806101000a81548173ffffffffffffffffffffffffffffffffffffffff021916908373ffffffffffffffffffffffffffffffffffffffff16021790555050565b600081359050610d70816115bb565b92915050565b600082601f830112610d8757600080fd5b8135610d9a610d958261143c565b61140f565b91508181835260208401935060208101905083856060840282011115610dbf57600080fd5b60005b83811015610def5781610dd58882610ecb565b845260208401935060608301925050600181019050610dc2565b5050505092915050565b600081359050610e08816115d2565b92915050565b600081359050610e1d816115e9565b92915050565b600082601f830112610e3457600080fd5b8135610e47610e4282611464565b61140f565b91508082526020830160208301858383011115610e6357600080fd5b610e6e83828461155b565b50505092915050565b600082601f830112610e8857600080fd5b8135610e9b610e9682611490565b61140f565b91508082526020830160208301858383011115610eb757600080fd5b610ec283828461155b565b50505092915050565b600060608284031215610edd57600080fd5b610ee7606061140f565b90506000610ef784828501610f8b565b6000830152506020610f0b84828501610e0e565b6020830152506040610f1f84828501610df9565b60408301525092915050565b600060608284031215610f3d57600080fd5b610f47606061140f565b90506000610f5784828501610f8b565b6000830152506020610f6b84828501610e0e565b6020830152506040610f7f84828501610df9565b60408301525092915050565b600081359050610f9a816115f9565b92915050565b600060208284031215610fb257600080fd5b6000610fc084828501610d61565b91505092915050565b600060208284031215610fdb57600080fd5b600082013567ffffffffffffffff811115610ff557600080fd5b61100184828501610e23565b91505092915050565b6000806040838503121561101d57600080fd5b600083013567ffffffffffffffff81111561103757600080fd5b61104385828601610e77565b925050602083013567ffffffffffffffff81111561106057600080fd5b61106c85828601610d76565b9150509250929050565b60006060828403121561108857600080fd5b600061109684828501610f2b565b91505092915050565b6000602082840312156110b157600080fd5b60006110bf84828501610f8b565b91505092915050565b6110d1816114ee565b82525050565b6110e081611500565b82525050565b6110ef81611549565b82525050565b6000611100826114c7565b61110a81856114e3565b935061111a81856020860161156a565b80840191505092915050565b6000611131826114bc565b61113b81856114d2565b935061114b81856020860161156a565b6111548161159d565b840191505092915050565b600061116c6001836114e3565b91507f63000000000000000000000000000000000000000000000000000000000000006000830152600182019050919050565b60006111ac6001836114e3565b91507f72000000000000000000000000000000000000000000000000000000000000006000830152600182019050919050565b60006111ec6001836114e3565b91507f68000000000000000000000000000000000000000000000000000000000000006000830152600182019050919050565b600061122c6001836114e3565b91507f74000000000000000000000000000000000000000000000000000000000000006000830152600182019050919050565b600061126c6001836114e3565b91507f69000000000000000000000000000000000000000000000000000000000000006000830152600182019050919050565b6112a88161153f565b82525050565b60006112ba82846110f5565b915081905092915050565b60006112d08261115f565b9150819050919050565b60006112e58261119f565b9150819050919050565b60006112fa826111df565b9150819050919050565b600061130f8261121f565b9150819050919050565b60006113248261125f565b9150819050919050565b600060208201905061134360008301846110c8565b92915050565b600060608201905061135e60008301866110c8565b81810360208301526113708185611126565b905061137f604083018461129f565b949350505050565b600060208201905061139c60008301846110d7565b92915050565b60006020820190506113b760008301846110e6565b92915050565b60006020820190506113d2600083018461129f565b92915050565b60006060820190506113ed600083018661129f565b6113fa60208301856110e6565b61140760408301846110d7565b949350505050565b6000604051905081810181811067ffffffffffffffff8211171561143257600080fd5b8060405250919050565b600067ffffffffffffffff82111561145357600080fd5b602082029050602081019050919050565b600067ffffffffffffffff82111561147b57600080fd5b601f19601f8301169050602081019050919050565b600067ffffffffffffffff8211156114a757600080fd5b601f19601f8301169050602081019050919050565b600081519050919050565b600081519050919050565b600082825260208201905092915050565b600081905092915050565b60006114f98261151f565b9050919050565b60008115159050919050565b600081905061151a826115ae565b919050565b600073ffffffffffffffffffffffffffffffffffffffff82169050919050565b6000819050919050565b60006115548261150c565b9050919050565b82818337600083830152505050565b60005b8381101561158857808201518184015260208101905061156d565b83811115611597576000848401525b50505050565b6000601f19601f8301169050919050565b600681106115b857fe5b50565b6115c4816114ee565b81146115cf57600080fd5b50565b6115db81611500565b81146115e657600080fd5b50565b600681106115f657600080fd5b50565b6116028161153f565b811461160d57600080fd5b5056fea365627a7a723158205b130bd81823a4c7697d4e6c92b3f8a1436337a6839d6f4a515ac723b8d803f46c6578706572696d656e74616cf564736f6c63430005100040",
  "source": "pragma solidity >0.4.0 <0.7.4;\r\npragma experimental ABIEncoderV2; \r\n\r\nimport './Ownable.sol';\r\nimport './PointsFactory.sol';\r\nimport './ERC721.sol';\r\ncontract OwnerFactory is PointsFactory{\r\n\r\nstruct Owner{\r\n    address oaddress;\r\n    string name;\r\n    Point[] pointsowner;\r\n    Point[] freepoints;\r\n    mapping(address => bool[6]) typessent;\r\n    uint freepointscount;\r\n}\r\nevent NewOwner();\r\nmapping(address => Owner) public addresstoowner;\r\nmapping(address => uint) addresstoid;\r\nmapping(address => bool) public ownerpresent;\r\nOwner[] public owners;\r\n\r\nuint id=0;\r\nconstructor () public {\r\n\r\n}\r\nfunction createOwner(string storage name) internal{\r\n    Owner memory o1;\r\n    for(uint i=0 ; i<10 ;i++){\r\n        o1.freepoints[i]=createPoint();\r\n    }\r\n    o1.name=name;\r\n    o1.oaddress=owner();\r\n    addresstoowner[o1.oaddress]=o1;\r\n    addresstoid[o1.oaddress]=id++;\r\n    addresstoowner[o1.oaddress].freepointscount=10;\r\n    ownerpresent[msg.sender]=true;\r\n    owners.push(o1);\r\n}\r\nfunction checkowner() public view returns (bool){\r\n    return (ownerpresent[msg.sender]);\r\n}\r\n// function getowner(address a)public view returns(Owner){\r\n//     return addresstoowner[a];\r\n// }\r\nfunction getpointcount(string memory _t, Point[] memory pointso) public returns (uint){\r\n    uint ip=0;\r\n    uint cp=0;\r\n    uint hp=0;\r\n    uint tp=0;\r\n    uint rp=0;\r\n    uint fp=0;\r\n    for (uint i = 0; i < pointso.length; i++) {\r\n        if(PointsFactory.getmytype(pointso[i]) ==  typetostring[_t]) {\r\n           fp++;}\r\n           else if(PointsFactory.getmytype(pointso[i]) ==  typetostring[_t]){\r\n               ip++;\r\n           }else if(PointsFactory.getmytype(pointso[i]) ==  typetostring[_t])\r\n             cp++;\r\n             else if(PointsFactory.getmytype(pointso[i]) ==  typetostring[_t])\r\n             hp++;\r\n             else if(PointsFactory.getmytype(pointso[i])==  typetostring[_t])\r\n             tp++;\r\n             else if(PointsFactory.getmytype(pointso[i])==  typetostring[_t])\r\n             rp++;\r\n            \r\n}\r\nif(keccak256(abi.encodePacked(_t)) == keccak256(abi.encodePacked('i')))\r\n    return ip;\r\n    else if(keccak256(abi.encodePacked(_t))== keccak256(abi.encodePacked('c')))\r\n    return cp;\r\n    else if(keccak256(abi.encodePacked(_t)) == keccak256(abi.encodePacked('h')))\r\n    return hp;\r\n    else if(keccak256(abi.encodePacked(_t)) == keccak256(abi.encodePacked('t')))\r\n    return tp;\r\n    else if (keccak256(abi.encodePacked(_t)) == keccak256(abi.encodePacked('r')))\r\n    return rp;\r\n    else return fp;\r\n}\r\nfunction getAdd() public returns(address){\r\n    return msg.sender;\r\n}\r\n}\r\n\r\n",
  "sourcePath": "E:\\Uni\\Junior\\COVID - 5679\\contracts\\OwnerFactory.sol",
  "compiler": {
    "name": "solc",
    "version": "0.5.16+commit.9c3226ce.Emscripten.clang"
  },
  "schemaVersion": "3.2.4",
  "updatedAt": "2020-08-29T09:23:42.483Z",
  "networkType": "ethereum",
  "devdoc": {
    "methods": {
      "isOwner()": {
        "return": "true if msg.sender is the owner of the contract."
      },
      "owner()": {
        "return": "the address of the owner."
      },
      "renounceOwnership()": {
        "details": "Allows the current owner to relinquish control of the contract."
      },
      "transferOwnership(address)": {
        "details": "Allows the current owner to transfer control of the contract to a newOwner.",
        "params": {
          "newOwner": "The address to transfer ownership to."
        }
      }
    }
  },
  "userdoc": {
    "methods": {
      "renounceOwnership()": {
        "notice": "Renouncing to ownership will leave the contract without an owner. It will not be possible to call the functions with the onlyOwner modifier anymore."
      }
    }
  }
}