{
  "contractName": "PointsFactory",
  "abi": [
    {
      "anonymous": false,
      "inputs": [],
      "name": "NewPoint",
      "type": "event"
    },
    {
      "anonymous": false,
      "inputs": [
        {
          "indexed": true,
          "internalType": "address",
          "name": "previousOwner",
          "type": "address"
        },
        {
          "indexed": true,
          "internalType": "address",
          "name": "newOwner",
          "type": "address"
        }
      ],
      "name": "OwnershipTransferred",
      "type": "event"
    },
    {
      "constant": true,
      "inputs": [],
      "name": "isOwner",
      "outputs": [
        {
          "internalType": "bool",
          "name": "",
          "type": "bool"
        }
      ],
      "payable": false,
      "stateMutability": "view",
      "type": "function"
    },
    {
      "constant": true,
      "inputs": [],
      "name": "owner",
      "outputs": [
        {
          "internalType": "address",
          "name": "",
          "type": "address"
        }
      ],
      "payable": false,
      "stateMutability": "view",
      "type": "function"
    },
    {
      "constant": true,
      "inputs": [
        {
          "internalType": "uint256",
          "name": "",
          "type": "uint256"
        }
      ],
      "name": "pointToOwner",
      "outputs": [
        {
          "internalType": "address",
          "name": "",
          "type": "address"
        }
      ],
      "payable": false,
      "stateMutability": "view",
      "type": "function"
    },
    {
      "constant": true,
      "inputs": [
        {
          "internalType": "uint256",
          "name": "",
          "type": "uint256"
        }
      ],
      "name": "points",
      "outputs": [
        {
          "internalType": "uint256",
          "name": "id",
          "type": "uint256"
        },
        {
          "internalType": "enum PointsFactory.types",
          "name": "Mytype",
          "type": "uint8"
        },
        {
          "internalType": "bool",
          "name": "tradable",
          "type": "bool"
        }
      ],
      "payable": false,
      "stateMutability": "view",
      "type": "function"
    },
    {
      "constant": false,
      "inputs": [],
      "name": "renounceOwnership",
      "outputs": [],
      "payable": false,
      "stateMutability": "nonpayable",
      "type": "function"
    },
    {
      "constant": false,
      "inputs": [
        {
          "internalType": "address",
          "name": "newOwner",
          "type": "address"
        }
      ],
      "name": "transferOwnership",
      "outputs": [],
      "payable": false,
      "stateMutability": "nonpayable",
      "type": "function"
    },
    {
      "constant": true,
      "inputs": [
        {
          "internalType": "string",
          "name": "",
          "type": "string"
        }
      ],
      "name": "typetostring",
      "outputs": [
        {
          "internalType": "enum PointsFactory.types",
          "name": "",
          "type": "uint8"
        }
      ],
      "payable": false,
      "stateMutability": "view",
      "type": "function"
    },
    {
      "constant": false,
      "inputs": [
        {
          "components": [
            {
              "internalType": "uint256",
              "name": "id",
              "type": "uint256"
            },
            {
              "internalType": "enum PointsFactory.types",
              "name": "Mytype",
              "type": "uint8"
            },
            {
              "internalType": "bool",
              "name": "tradable",
              "type": "bool"
            }
          ],
          "internalType": "struct PointsFactory.Point",
          "name": "p",
          "type": "tuple"
        }
      ],
      "name": "getmytype",
      "outputs": [
        {
          "internalType": "enum PointsFactory.types",
          "name": "",
          "type": "uint8"
        }
      ],
      "payable": false,
      "stateMutability": "nonpayable",
      "type": "function"
    }
  ],
  "bytecode": "0x60806040526000600155336000806101000a81548173ffffffffffffffffffffffffffffffffffffffff021916908373ffffffffffffffffffffffffffffffffffffffff1602179055506000809054906101000a900473ffffffffffffffffffffffffffffffffffffffff1673ffffffffffffffffffffffffffffffffffffffff16600073ffffffffffffffffffffffffffffffffffffffff167f8be0079c531659141344cd1fd0a4f28419497f9722a3daafe3b4186f6b6457e060405160405180910390a36108e0806100d46000396000f3fe608060405234801561001057600080fd5b50600436106100885760003560e01c80638f32d59b1161005b5780638f32d59b146101155780639799b4e714610133578063e0b3652b14610165578063f2fde38b1461019557610088565b806347db4f241461008d57806351517a66146100bd578063715018a6146100ed5780638da5cb5b146100f7575b600080fd5b6100a760048036036100a29190810190610650565b6101b1565b6040516100b49190610714565b60405180910390f35b6100d760048036036100d2919081019061060f565b6101bf565b6040516100e49190610714565b60405180910390f35b6100f56101f5565b005b6100ff6102c5565b60405161010c91906106de565b60405180910390f35b61011d6102ee565b60405161012a91906106f9565b60405180910390f35b61014d60048036036101489190810190610679565b610345565b60405161015c9392919061072f565b60405180910390f35b61017f600480360361017a9190810190610679565b610396565b60405161018c91906106de565b60405180910390f35b6101af60048036036101aa91908101906105e6565b6103c9565b005b600081602001519050919050565b6005818051602081018201805184825260208301602085012081835280955050505050506000915054906101000a900460ff1681565b6101fd6102ee565b61020657600080fd5b600073ffffffffffffffffffffffffffffffffffffffff166000809054906101000a900473ffffffffffffffffffffffffffffffffffffffff1673ffffffffffffffffffffffffffffffffffffffff167f8be0079c531659141344cd1fd0a4f28419497f9722a3daafe3b4186f6b6457e060405160405180910390a360008060006101000a81548173ffffffffffffffffffffffffffffffffffffffff021916908373ffffffffffffffffffffffffffffffffffffffff160217905550565b60008060009054906101000a900473ffffffffffffffffffffffffffffffffffffffff16905090565b60008060009054906101000a900473ffffffffffffffffffffffffffffffffffffffff1673ffffffffffffffffffffffffffffffffffffffff163373ffffffffffffffffffffffffffffffffffffffff1614905090565b6002818154811061035257fe5b90600052602060002090600202016000915090508060000154908060010160009054906101000a900460ff16908060010160019054906101000a900460ff16905083565b60036020528060005260406000206000915054906101000a900473ffffffffffffffffffffffffffffffffffffffff1681565b6103d16102ee565b6103da57600080fd5b6103e3816103e6565b50565b600073ffffffffffffffffffffffffffffffffffffffff168173ffffffffffffffffffffffffffffffffffffffff16141561042057600080fd5b8073ffffffffffffffffffffffffffffffffffffffff166000809054906101000a900473ffffffffffffffffffffffffffffffffffffffff1673ffffffffffffffffffffffffffffffffffffffff167f8be0079c531659141344cd1fd0a4f28419497f9722a3daafe3b4186f6b6457e060405160405180910390a3806000806101000a81548173ffffffffffffffffffffffffffffffffffffffff021916908373ffffffffffffffffffffffffffffffffffffffff16021790555050565b6000813590506104ed81610848565b92915050565b6000813590506105028161085f565b92915050565b60008135905061051781610876565b92915050565b600082601f83011261052e57600080fd5b813561054161053c82610793565b610766565b9150808252602083016020830185838301111561055d57600080fd5b61056883828461082c565b50505092915050565b60006060828403121561058357600080fd5b61058d6060610766565b9050600061059d848285016105d1565b60008301525060206105b184828501610508565b60208301525060406105c5848285016104f3565b60408301525092915050565b6000813590506105e081610886565b92915050565b6000602082840312156105f857600080fd5b6000610606848285016104de565b91505092915050565b60006020828403121561062157600080fd5b600082013567ffffffffffffffff81111561063b57600080fd5b6106478482850161051d565b91505092915050565b60006060828403121561066257600080fd5b600061067084828501610571565b91505092915050565b60006020828403121561068b57600080fd5b6000610699848285016105d1565b91505092915050565b6106ab816107bf565b82525050565b6106ba816107d1565b82525050565b6106c98161081a565b82525050565b6106d881610810565b82525050565b60006020820190506106f360008301846106a2565b92915050565b600060208201905061070e60008301846106b1565b92915050565b600060208201905061072960008301846106c0565b92915050565b600060608201905061074460008301866106cf565b61075160208301856106c0565b61075e60408301846106b1565b949350505050565b6000604051905081810181811067ffffffffffffffff8211171561078957600080fd5b8060405250919050565b600067ffffffffffffffff8211156107aa57600080fd5b601f19601f8301169050602081019050919050565b60006107ca826107f0565b9050919050565b60008115159050919050565b60008190506107eb8261083b565b919050565b600073ffffffffffffffffffffffffffffffffffffffff82169050919050565b6000819050919050565b6000610825826107dd565b9050919050565b82818337600083830152505050565b6006811061084557fe5b50565b610851816107bf565b811461085c57600080fd5b50565b610868816107d1565b811461087357600080fd5b50565b6006811061088357600080fd5b50565b61088f81610810565b811461089a57600080fd5b5056fea365627a7a7231582027c43fe6f8d84bb6bfa64f175d18bb74758b9f3d6f75ce1bc375536a43e8d2336c6578706572696d656e74616cf564736f6c63430005100040",
  "source": "pragma solidity >0.4.0 <0.7.4;\r\npragma experimental ABIEncoderV2;\r\nimport './Ownable.sol';\r\nimport './OwnerFactory.sol';\r\nimport './ERC721.sol';\r\n\r\ncontract PointsFactory is Ownable{\r\n\r\nevent NewPoint();\r\n\r\n enum types{\r\n    free, innovation, creativity, helpful, trustworthy, resourceful\r\n}\r\n\r\nstruct Point{\r\nuint id;\r\ntypes Mytype ;\r\nbool tradable;\r\n}\r\nuint pid=0;\r\n\r\nPoint[] public points;\r\nmapping (uint => address) public pointToOwner;\r\nmapping (address => uint) ownerPointCount;\r\nmapping (string => PointsFactory.types) public typetostring;\r\n\r\nfunction createPoint() internal returns(Point memory){\r\n    types temp = types.free;\r\n    Point memory p1=Point(pid++,temp, true);\r\n    points.push(p1);\r\n    uint id = points.length - 1;\r\n    pointToOwner[id] = msg.sender;\r\n    ownerPointCount[msg.sender]++;\r\n    typetostring[\"f\"]=types.free;\r\n    typetostring[\"i\"]=types.innovation;\r\n    typetostring[\"c\"]=types.creativity;\r\n    typetostring[\"t\"]=types.trustworthy;\r\n    typetostring[\"h\"]=types.helpful;\r\n    typetostring[\"r\"]=types.resourceful;\r\n   // emit NewPoint();\r\n    return p1;\r\n}\r\n\r\nmodifier onlyownerof(uint id){\r\n    require(msg.sender == pointToOwner[id]);\r\n    _;\r\n}\r\nfunction getmytype(Point memory p) public returns (types){\r\n    return p.Mytype;\r\n}\r\n\r\n}",
  "sourcePath": "E:\\Uni\\Junior\\COVID - 5679\\contracts\\PointsFactory.sol",
  "compiler": {
    "name": "solc",
    "version": "0.5.16+commit.9c3226ce.Emscripten.clang"
  },
  "schemaVersion": "3.2.4",
  "updatedAt": "2020-08-29T09:23:42.602Z",
  "networkType": "ethereum",
  "devdoc": {
    "methods": {
      "isOwner()": {
        "return": "true if msg.sender is the owner of the contract."
      },
      "owner()": {
        "return": "the address of the owner."
      },
      "renounceOwnership()": {
        "details": "Allows the current owner to relinquish control of the contract."
      },
      "transferOwnership(address)": {
        "details": "Allows the current owner to transfer control of the contract to a newOwner.",
        "params": {
          "newOwner": "The address to transfer ownership to."
        }
      }
    }
  },
  "userdoc": {
    "methods": {
      "renounceOwnership()": {
        "notice": "Renouncing to ownership will leave the contract without an owner. It will not be possible to call the functions with the onlyOwner modifier anymore."
      }
    }
  }
}