{
  "contractName": "transfering",
  "abi": [
    {
      "inputs": [],
      "payable": false,
      "stateMutability": "nonpayable",
      "type": "constructor"
    },
    {
      "anonymous": false,
      "inputs": [
        {
          "indexed": true,
          "internalType": "address",
          "name": "_owner",
          "type": "address"
        },
        {
          "indexed": true,
          "internalType": "address",
          "name": "_approved",
          "type": "address"
        },
        {
          "indexed": true,
          "internalType": "uint256",
          "name": "_tokenId",
          "type": "uint256"
        }
      ],
      "name": "Approval",
      "type": "event"
    },
    {
      "anonymous": false,
      "inputs": [],
      "name": "NewOwner",
      "type": "event"
    },
    {
      "anonymous": false,
      "inputs": [],
      "name": "NewPoint",
      "type": "event"
    },
    {
      "anonymous": false,
      "inputs": [
        {
          "indexed": true,
          "internalType": "address",
          "name": "previousOwner",
          "type": "address"
        },
        {
          "indexed": true,
          "internalType": "address",
          "name": "newOwner",
          "type": "address"
        }
      ],
      "name": "OwnershipTransferred",
      "type": "event"
    },
    {
      "anonymous": false,
      "inputs": [
        {
          "indexed": true,
          "internalType": "address",
          "name": "_from",
          "type": "address"
        },
        {
          "indexed": true,
          "internalType": "address",
          "name": "_to",
          "type": "address"
        },
        {
          "indexed": true,
          "internalType": "uint256",
          "name": "_tokenId",
          "type": "uint256"
        }
      ],
      "name": "Transfer",
      "type": "event"
    },
    {
      "constant": true,
      "inputs": [
        {
          "internalType": "address",
          "name": "",
          "type": "address"
        }
      ],
      "name": "addresstoowner",
      "outputs": [
        {
          "internalType": "address",
          "name": "oaddress",
          "type": "address"
        },
        {
          "internalType": "string",
          "name": "name",
          "type": "string"
        },
        {
          "internalType": "uint256",
          "name": "freepointscount",
          "type": "uint256"
        }
      ],
      "payable": false,
      "stateMutability": "view",
      "type": "function"
    },
    {
      "constant": true,
      "inputs": [
        {
          "internalType": "address",
          "name": "a",
          "type": "address"
        }
      ],
      "name": "checkowner",
      "outputs": [
        {
          "internalType": "bool",
          "name": "",
          "type": "bool"
        }
      ],
      "payable": false,
      "stateMutability": "view",
      "type": "function"
    },
    {
      "constant": false,
      "inputs": [
        {
          "components": [
            {
              "internalType": "uint256",
              "name": "id",
              "type": "uint256"
            },
            {
              "internalType": "enum PointsFactory.types",
              "name": "Mytype",
              "type": "uint8"
            },
            {
              "internalType": "bool",
              "name": "tradable",
              "type": "bool"
            }
          ],
          "internalType": "struct PointsFactory.Point",
          "name": "p",
          "type": "tuple"
        }
      ],
      "name": "getmytype",
      "outputs": [
        {
          "internalType": "enum PointsFactory.types",
          "name": "",
          "type": "uint8"
        }
      ],
      "payable": false,
      "stateMutability": "nonpayable",
      "type": "function"
    },
    {
      "constant": false,
      "inputs": [
        {
          "internalType": "string",
          "name": "_t",
          "type": "string"
        },
        {
          "components": [
            {
              "internalType": "uint256",
              "name": "id",
              "type": "uint256"
            },
            {
              "internalType": "enum PointsFactory.types",
              "name": "Mytype",
              "type": "uint8"
            },
            {
              "internalType": "bool",
              "name": "tradable",
              "type": "bool"
            }
          ],
          "internalType": "struct PointsFactory.Point[]",
          "name": "pointso",
          "type": "tuple[]"
        }
      ],
      "name": "getpointcount",
      "outputs": [
        {
          "internalType": "uint256",
          "name": "",
          "type": "uint256"
        }
      ],
      "payable": false,
      "stateMutability": "nonpayable",
      "type": "function"
    },
    {
      "constant": true,
      "inputs": [],
      "name": "isOwner",
      "outputs": [
        {
          "internalType": "bool",
          "name": "",
          "type": "bool"
        }
      ],
      "payable": false,
      "stateMutability": "view",
      "type": "function"
    },
    {
      "constant": true,
      "inputs": [],
      "name": "owner",
      "outputs": [
        {
          "internalType": "address",
          "name": "",
          "type": "address"
        }
      ],
      "payable": false,
      "stateMutability": "view",
      "type": "function"
    },
    {
      "constant": true,
      "inputs": [
        {
          "internalType": "address",
          "name": "",
          "type": "address"
        }
      ],
      "name": "ownerpresent",
      "outputs": [
        {
          "internalType": "bool",
          "name": "",
          "type": "bool"
        }
      ],
      "payable": false,
      "stateMutability": "view",
      "type": "function"
    },
    {
      "constant": true,
      "inputs": [
        {
          "internalType": "uint256",
          "name": "",
          "type": "uint256"
        }
      ],
      "name": "owners",
      "outputs": [
        {
          "internalType": "address",
          "name": "oaddress",
          "type": "address"
        },
        {
          "internalType": "string",
          "name": "name",
          "type": "string"
        },
        {
          "internalType": "uint256",
          "name": "freepointscount",
          "type": "uint256"
        }
      ],
      "payable": false,
      "stateMutability": "view",
      "type": "function"
    },
    {
      "constant": true,
      "inputs": [
        {
          "internalType": "uint256",
          "name": "",
          "type": "uint256"
        }
      ],
      "name": "pointToOwner",
      "outputs": [
        {
          "internalType": "address",
          "name": "",
          "type": "address"
        }
      ],
      "payable": false,
      "stateMutability": "view",
      "type": "function"
    },
    {
      "constant": true,
      "inputs": [
        {
          "internalType": "uint256",
          "name": "",
          "type": "uint256"
        }
      ],
      "name": "points",
      "outputs": [
        {
          "internalType": "uint256",
          "name": "id",
          "type": "uint256"
        },
        {
          "internalType": "enum PointsFactory.types",
          "name": "Mytype",
          "type": "uint8"
        },
        {
          "internalType": "bool",
          "name": "tradable",
          "type": "bool"
        }
      ],
      "payable": false,
      "stateMutability": "view",
      "type": "function"
    },
    {
      "constant": false,
      "inputs": [],
      "name": "renounceOwnership",
      "outputs": [],
      "payable": false,
      "stateMutability": "nonpayable",
      "type": "function"
    },
    {
      "constant": false,
      "inputs": [
        {
          "internalType": "address",
          "name": "newOwner",
          "type": "address"
        }
      ],
      "name": "transferOwnership",
      "outputs": [],
      "payable": false,
      "stateMutability": "nonpayable",
      "type": "function"
    },
    {
      "constant": true,
      "inputs": [
        {
          "internalType": "string",
          "name": "",
          "type": "string"
        }
      ],
      "name": "typetostring",
      "outputs": [
        {
          "internalType": "enum PointsFactory.types",
          "name": "",
          "type": "uint8"
        }
      ],
      "payable": false,
      "stateMutability": "view",
      "type": "function"
    },
    {
      "constant": false,
      "inputs": [
        {
          "internalType": "address",
          "name": "_aproved",
          "type": "address"
        },
        {
          "internalType": "uint256",
          "name": "_tokenId",
          "type": "uint256"
        }
      ],
      "name": "approve",
      "outputs": [],
      "payable": true,
      "stateMutability": "payable",
      "type": "function"
    }
  ],
  "bytecode": "0x608060405260006001556000600a5534801561001a57600080fd5b50336000806101000a81548173ffffffffffffffffffffffffffffffffffffffff021916908373ffffffffffffffffffffffffffffffffffffffff1602179055506000809054906101000a900473ffffffffffffffffffffffffffffffffffffffff1673ffffffffffffffffffffffffffffffffffffffff16600073ffffffffffffffffffffffffffffffffffffffff167f8be0079c531659141344cd1fd0a4f28419497f9722a3daafe3b4186f6b6457e060405160405180910390a3611739806100e66000396000f3fe6080604052600436106100dd5760003560e01c80638eb45bb71161007f578063c30665ef11610059578063c30665ef146102dd578063e0b3652b1461031a578063e95dbe6114610357578063f2fde38b14610396576100dd565b80638eb45bb7146102365780638f32d59b146102735780639799b4e71461029e576100dd565b806347db4f24116100bb57806347db4f241461017a57806351517a66146101b7578063715018a6146101f45780638da5cb5b1461020b576100dd565b8063025e7c27146100e2578063095ea7b314610121578063236548501461013d575b600080fd5b3480156100ee57600080fd5b5061010960048036036101049190810190611185565b6103bf565b6040516101189392919061142f565b60405180910390f35b61013b60048036036101369190810190611073565b6104ae565b005b34801561014957600080fd5b50610164600480360361015f919081019061104a565b6104b2565b604051610171919061146d565b60405180910390f35b34801561018657600080fd5b506101a1600480360361019c919081019061115c565b610508565b6040516101ae9190611488565b60405180910390f35b3480156101c357600080fd5b506101de60048036036101d991908101906110af565b610516565b6040516101eb9190611488565b60405180910390f35b34801561020057600080fd5b5061020961054c565b005b34801561021757600080fd5b5061022061061c565b60405161022d9190611414565b60405180910390f35b34801561024257600080fd5b5061025d600480360361025891908101906110f0565b610645565b60405161026a91906114a3565b60405180910390f35b34801561027f57600080fd5b50610288610b19565b604051610295919061146d565b60405180910390f35b3480156102aa57600080fd5b506102c560048036036102c09190810190611185565b610b70565b6040516102d4939291906114be565b60405180910390f35b3480156102e957600080fd5b5061030460048036036102ff919081019061104a565b610bc1565b604051610311919061146d565b60405180910390f35b34801561032657600080fd5b50610341600480360361033c9190810190611185565b610be1565b60405161034e9190611414565b60405180910390f35b34801561036357600080fd5b5061037e6004803603610379919081019061104a565b610c14565b60405161038d9392919061142f565b60405180910390f35b3480156103a257600080fd5b506103bd60048036036103b8919081019061104a565b610cf6565b005b600981815481106103cc57fe5b90600052602060002090600602016000915090508060000160009054906101000a900473ffffffffffffffffffffffffffffffffffffffff1690806001018054600181600116156101000203166002900480601f01602080910402602001604051908101604052809291908181526020018280546001816001161561010002031660029004801561049e5780601f106104735761010080835404028352916020019161049e565b820191906000526020600020905b81548152906001019060200180831161048157829003601f168201915b5050505050908060050154905083565b5050565b6000600860008373ffffffffffffffffffffffffffffffffffffffff1673ffffffffffffffffffffffffffffffffffffffff16815260200190815260200160002060009054906101000a900460ff169050919050565b600081602001519050919050565b6005818051602081018201805184825260208301602085012081835280955050505050506000915054906101000a900460ff1681565b610554610b19565b61055d57600080fd5b600073ffffffffffffffffffffffffffffffffffffffff166000809054906101000a900473ffffffffffffffffffffffffffffffffffffffff1673ffffffffffffffffffffffffffffffffffffffff167f8be0079c531659141344cd1fd0a4f28419497f9722a3daafe3b4186f6b6457e060405160405180910390a360008060006101000a81548173ffffffffffffffffffffffffffffffffffffffff021916908373ffffffffffffffffffffffffffffffffffffffff160217905550565b60008060009054906101000a900473ffffffffffffffffffffffffffffffffffffffff16905090565b600080600090506000809050600080905060008090506000809050600080905060008090505b88518110156109285760058a6040516106849190611394565b908152602001604051809103902060009054906101000a900460ff1660058111156106ab57fe5b6106c78a83815181106106ba57fe5b6020026020010151610508565b60058111156106d257fe5b14156106e557818060010192505061091b565b60058a6040516106f59190611394565b908152602001604051809103902060009054906101000a900460ff16600581111561071c57fe5b6107388a838151811061072b57fe5b6020026020010151610508565b600581111561074357fe5b141561075657868060010197505061091a565b60058a6040516107669190611394565b908152602001604051809103902060009054906101000a900460ff16600581111561078d57fe5b6107a98a838151811061079c57fe5b6020026020010151610508565b60058111156107b457fe5b14156107c7578580600101965050610919565b60058a6040516107d79190611394565b908152602001604051809103902060009054906101000a900460ff1660058111156107fe57fe5b61081a8a838151811061080d57fe5b6020026020010151610508565b600581111561082557fe5b1415610838578480600101955050610918565b60058a6040516108489190611394565b908152602001604051809103902060009054906101000a900460ff16600581111561086f57fe5b61088b8a838151811061087e57fe5b6020026020010151610508565b600581111561089657fe5b14156108a9578380600101945050610917565b60058a6040516108b99190611394565b908152602001604051809103902060009054906101000a900460ff1660058111156108e057fe5b6108fc8a83815181106108ef57fe5b6020026020010151610508565b600581111561090757fe5b14156109165782806001019350505b5b5b5b5b5b808060010191505061066b565b50604051602001610938906113ff565b604051602081830303815290604052805190602001208960405160200161095f9190611394565b60405160208183030381529060405280519060200120141561098957859650505050505050610b13565b604051602001610998906113ab565b60405160208183030381529060405280519060200120896040516020016109bf9190611394565b6040516020818303038152906040528051906020012014156109e957849650505050505050610b13565b6040516020016109f8906113d5565b6040516020818303038152906040528051906020012089604051602001610a1f9190611394565b604051602081830303815290604052805190602001201415610a4957839650505050505050610b13565b604051602001610a58906113ea565b6040516020818303038152906040528051906020012089604051602001610a7f9190611394565b604051602081830303815290604052805190602001201415610aa957829650505050505050610b13565b604051602001610ab8906113c0565b6040516020818303038152906040528051906020012089604051602001610adf9190611394565b604051602081830303815290604052805190602001201415610b0957819650505050505050610b13565b8096505050505050505b92915050565b60008060009054906101000a900473ffffffffffffffffffffffffffffffffffffffff1673ffffffffffffffffffffffffffffffffffffffff163373ffffffffffffffffffffffffffffffffffffffff1614905090565b60028181548110610b7d57fe5b90600052602060002090600202016000915090508060000154908060010160009054906101000a900460ff16908060010160019054906101000a900460ff16905083565b60086020528060005260406000206000915054906101000a900460ff1681565b60036020528060005260406000206000915054906101000a900473ffffffffffffffffffffffffffffffffffffffff1681565b60066020528060005260406000206000915090508060000160009054906101000a900473ffffffffffffffffffffffffffffffffffffffff1690806001018054600181600116156101000203166002900480601f016020809104026020016040519081016040528092919081815260200182805460018160011615610100020316600290048015610ce65780601f10610cbb57610100808354040283529160200191610ce6565b820191906000526020600020905b815481529060010190602001808311610cc957829003601f168201915b5050505050908060050154905083565b610cfe610b19565b610d0757600080fd5b610d1081610d13565b50565b600073ffffffffffffffffffffffffffffffffffffffff168173ffffffffffffffffffffffffffffffffffffffff161415610d4d57600080fd5b8073ffffffffffffffffffffffffffffffffffffffff166000809054906101000a900473ffffffffffffffffffffffffffffffffffffffff1673ffffffffffffffffffffffffffffffffffffffff167f8be0079c531659141344cd1fd0a4f28419497f9722a3daafe3b4186f6b6457e060405160405180910390a3806000806101000a81548173ffffffffffffffffffffffffffffffffffffffff021916908373ffffffffffffffffffffffffffffffffffffffff16021790555050565b600081359050610e1a816116a1565b92915050565b600082601f830112610e3157600080fd5b8135610e44610e3f82611522565b6114f5565b91508181835260208401935060208101905083856060840282011115610e6957600080fd5b60005b83811015610e995781610e7f8882610f75565b845260208401935060608301925050600181019050610e6c565b5050505092915050565b600081359050610eb2816116b8565b92915050565b600081359050610ec7816116cf565b92915050565b600082601f830112610ede57600080fd5b8135610ef1610eec8261154a565b6114f5565b91508082526020830160208301858383011115610f0d57600080fd5b610f18838284611641565b50505092915050565b600082601f830112610f3257600080fd5b8135610f45610f4082611576565b6114f5565b91508082526020830160208301858383011115610f6157600080fd5b610f6c838284611641565b50505092915050565b600060608284031215610f8757600080fd5b610f9160606114f5565b90506000610fa184828501611035565b6000830152506020610fb584828501610eb8565b6020830152506040610fc984828501610ea3565b60408301525092915050565b600060608284031215610fe757600080fd5b610ff160606114f5565b9050600061100184828501611035565b600083015250602061101584828501610eb8565b602083015250604061102984828501610ea3565b60408301525092915050565b600081359050611044816116df565b92915050565b60006020828403121561105c57600080fd5b600061106a84828501610e0b565b91505092915050565b6000806040838503121561108657600080fd5b600061109485828601610e0b565b92505060206110a585828601611035565b9150509250929050565b6000602082840312156110c157600080fd5b600082013567ffffffffffffffff8111156110db57600080fd5b6110e784828501610ecd565b91505092915050565b6000806040838503121561110357600080fd5b600083013567ffffffffffffffff81111561111d57600080fd5b61112985828601610f21565b925050602083013567ffffffffffffffff81111561114657600080fd5b61115285828601610e20565b9150509250929050565b60006060828403121561116e57600080fd5b600061117c84828501610fd5565b91505092915050565b60006020828403121561119757600080fd5b60006111a584828501611035565b91505092915050565b6111b7816115d4565b82525050565b6111c6816115e6565b82525050565b6111d58161162f565b82525050565b60006111e6826115ad565b6111f081856115c9565b9350611200818560208601611650565b80840191505092915050565b6000611217826115a2565b61122181856115b8565b9350611231818560208601611650565b61123a81611683565b840191505092915050565b60006112526001836115c9565b91507f63000000000000000000000000000000000000000000000000000000000000006000830152600182019050919050565b60006112926001836115c9565b91507f72000000000000000000000000000000000000000000000000000000000000006000830152600182019050919050565b60006112d26001836115c9565b91507f68000000000000000000000000000000000000000000000000000000000000006000830152600182019050919050565b60006113126001836115c9565b91507f74000000000000000000000000000000000000000000000000000000000000006000830152600182019050919050565b60006113526001836115c9565b91507f69000000000000000000000000000000000000000000000000000000000000006000830152600182019050919050565b61138e81611625565b82525050565b60006113a082846111db565b915081905092915050565b60006113b682611245565b9150819050919050565b60006113cb82611285565b9150819050919050565b60006113e0826112c5565b9150819050919050565b60006113f582611305565b9150819050919050565b600061140a82611345565b9150819050919050565b600060208201905061142960008301846111ae565b92915050565b600060608201905061144460008301866111ae565b8181036020830152611456818561120c565b90506114656040830184611385565b949350505050565b600060208201905061148260008301846111bd565b92915050565b600060208201905061149d60008301846111cc565b92915050565b60006020820190506114b86000830184611385565b92915050565b60006060820190506114d36000830186611385565b6114e060208301856111cc565b6114ed60408301846111bd565b949350505050565b6000604051905081810181811067ffffffffffffffff8211171561151857600080fd5b8060405250919050565b600067ffffffffffffffff82111561153957600080fd5b602082029050602081019050919050565b600067ffffffffffffffff82111561156157600080fd5b601f19601f8301169050602081019050919050565b600067ffffffffffffffff82111561158d57600080fd5b601f19601f8301169050602081019050919050565b600081519050919050565b600081519050919050565b600082825260208201905092915050565b600081905092915050565b60006115df82611605565b9050919050565b60008115159050919050565b600081905061160082611694565b919050565b600073ffffffffffffffffffffffffffffffffffffffff82169050919050565b6000819050919050565b600061163a826115f2565b9050919050565b82818337600083830152505050565b60005b8381101561166e578082015181840152602081019050611653565b8381111561167d576000848401525b50505050565b6000601f19601f8301169050919050565b6006811061169e57fe5b50565b6116aa816115d4565b81146116b557600080fd5b50565b6116c1816115e6565b81146116cc57600080fd5b50565b600681106116dc57600080fd5b50565b6116e881611625565b81146116f357600080fd5b5056fea365627a7a7231582056a05e055f7c5596b00f4384ca279d70e771d07fefdafe408c33659b7d83471a6c6578706572696d656e74616cf564736f6c63430005100040",
  "source": "pragma solidity 0.5.16;\r\npragma experimental ABIEncoderV2;\r\n\r\nimport './ERC721.sol';\r\nimport './PointsFactory.sol';\r\n\r\ncontract transfering is PointsFactory, ERC721, OwnerFactory{\r\n  constructor() public {}\r\n function _transfer(address _from, address _to,uint _tokenId, types t) private {\r\n    if(addresstoowner[_from].typessent[_to][uint(t)]==false){\r\n      for(uint i=0;i<6;i++){\r\n        addresstoowner[_from].typessent[_to][i]=false;\r\n      }\r\n    }\r\n    require(!(addresstoowner[_from].typessent[_to][uint(t)]) && (addresstoowner[_from].freepointscount>=1));\r\n    ownerPointCount[_to]++;\r\n    ownerPointCount[msg.sender]--;\r\n    pointToOwner[_tokenId] = _to;\r\n    addresstoowner[_from].typessent[_to][uint(t)]=true;\r\n    ownerPointCount[_to]++;\r\n    addresstoowner[_from].freepointscount--;\r\n    addresstoowner[_to].pointsowner.push(addresstoowner[_from].freepoints[addresstoowner[_from].freepoints.length-1]);\r\n    addresstoowner[_from].freepoints.pop();\r\n    addresstoowner[_to].pointsowner[points.length-1].Mytype=t;\r\n    emit Transfer(_from, _to, _tokenId);\r\n  }\r\n\r\n  function approve(address _aproved, uint _tokenId)public payable{\r\n\r\n  }\r\n\r\n\r\n}",
  "sourcePath": "E:/Uni/Junior/COVID - 5679/contracts/transfering.sol",
  "compiler": {
    "name": "solc",
    "version": "0.5.16+commit.9c3226ce.Emscripten.clang"
  },
  "schemaVersion": "3.2.4",
  "updatedAt": "2020-08-29T09:23:42.614Z",
  "networkType": "ethereum",
  "devdoc": {
    "methods": {
      "isOwner()": {
        "return": "true if msg.sender is the owner of the contract."
      },
      "owner()": {
        "return": "the address of the owner."
      },
      "renounceOwnership()": {
        "details": "Allows the current owner to relinquish control of the contract."
      },
      "transferOwnership(address)": {
        "details": "Allows the current owner to transfer control of the contract to a newOwner.",
        "params": {
          "newOwner": "The address to transfer ownership to."
        }
      }
    }
  },
  "userdoc": {
    "methods": {
      "renounceOwnership()": {
        "notice": "Renouncing to ownership will leave the contract without an owner. It will not be possible to call the functions with the onlyOwner modifier anymore."
      }
    }
  }
}